{
  "_format": "hh-sol-artifact-1",
  "contractName": "CrossChainDAO",
  "sourceName": "contracts/CrossChainDAO.sol",
  "abi": [
    {
      "inputs": [],
      "stateMutability": "nonpayable",
      "type": "constructor"
    },
    {
      "anonymous": false,
      "inputs": [
        {
          "indexed": false,
          "internalType": "uint256",
          "name": "id",
          "type": "uint256"
        },
        {
          "indexed": false,
          "internalType": "string",
          "name": "description",
          "type": "string"
        }
      ],
      "name": "ProposalCreated",
      "type": "event"
    },
    {
      "anonymous": false,
      "inputs": [
        {
          "indexed": false,
          "internalType": "uint256",
          "name": "id",
          "type": "uint256"
        }
      ],
      "name": "ProposalExecuted",
      "type": "event"
    },
    {
      "anonymous": false,
      "inputs": [
        {
          "indexed": false,
          "internalType": "uint256",
          "name": "id",
          "type": "uint256"
        },
        {
          "indexed": false,
          "internalType": "address",
          "name": "voter",
          "type": "address"
        }
      ],
      "name": "VoteCasted",
      "type": "event"
    },
    {
      "inputs": [
        {
          "internalType": "address",
          "name": "_member",
          "type": "address"
        }
      ],
      "name": "addMember",
      "outputs": [],
      "stateMutability": "nonpayable",
      "type": "function"
    },
    {
      "inputs": [
        {
          "internalType": "string",
          "name": "_description",
          "type": "string"
        }
      ],
      "name": "createProposal",
      "outputs": [],
      "stateMutability": "nonpayable",
      "type": "function"
    },
    {
      "inputs": [
        {
          "internalType": "uint256",
          "name": "_id",
          "type": "uint256"
        }
      ],
      "name": "executeProposal",
      "outputs": [],
      "stateMutability": "nonpayable",
      "type": "function"
    },
    {
      "inputs": [
        {
          "internalType": "address",
          "name": "",
          "type": "address"
        }
      ],
      "name": "members",
      "outputs": [
        {
          "internalType": "bool",
          "name": "",
          "type": "bool"
        }
      ],
      "stateMutability": "view",
      "type": "function"
    },
    {
      "inputs": [],
      "name": "owner",
      "outputs": [
        {
          "internalType": "address",
          "name": "",
          "type": "address"
        }
      ],
      "stateMutability": "view",
      "type": "function"
    },
    {
      "inputs": [],
      "name": "proposalCount",
      "outputs": [
        {
          "internalType": "uint256",
          "name": "",
          "type": "uint256"
        }
      ],
      "stateMutability": "view",
      "type": "function"
    },
    {
      "inputs": [
        {
          "internalType": "uint256",
          "name": "",
          "type": "uint256"
        }
      ],
      "name": "proposals",
      "outputs": [
        {
          "internalType": "uint256",
          "name": "id",
          "type": "uint256"
        },
        {
          "internalType": "string",
          "name": "description",
          "type": "string"
        },
        {
          "internalType": "uint256",
          "name": "voteCount",
          "type": "uint256"
        },
        {
          "internalType": "bool",
          "name": "executed",
          "type": "bool"
        }
      ],
      "stateMutability": "view",
      "type": "function"
    },
    {
      "inputs": [
        {
          "internalType": "uint256",
          "name": "_id",
          "type": "uint256"
        }
      ],
      "name": "vote",
      "outputs": [],
      "stateMutability": "nonpayable",
      "type": "function"
    }
  ],
  "bytecode": "0x6080604052348015600f57600080fd5b50336000806101000a81548173ffffffffffffffffffffffffffffffffffffffff021916908373ffffffffffffffffffffffffffffffffffffffff1602179055506111a78061005f6000396000f3fe608060405234801561001057600080fd5b50600436106100885760003560e01c806349c2a1a61161005b57806349c2a1a6146101285780638da5cb5b14610144578063ca6d56dc14610162578063da35c6641461017e57610088565b80630121b93f1461008d578063013cf08b146100a957806308ae4b0c146100dc5780630d61b5191461010c575b600080fd5b6100a760048036038101906100a2919061082b565b61019c565b005b6100c360048036038101906100be919061082b565b6102e8565b6040516100d39493929190610912565b60405180910390f35b6100f660048036038101906100f191906109bc565b6103ad565b60405161010391906109e9565b60405180910390f35b6101266004803603810190610121919061082b565b6103cd565b005b610142600480360381019061013d9190610b39565b610563565b005b61014c6106ce565b6040516101599190610b91565b60405180910390f35b61017c600480360381019061017791906109bc565b6106f2565b005b6101866107db565b6040516101939190610bac565b60405180910390f35b600360003373ffffffffffffffffffffffffffffffffffffffff1673ffffffffffffffffffffffffffffffffffffffff16815260200190815260200160002060009054906101000a900460ff16610228576040517f08c379a000000000000000000000000000000000000000000000000000000000815260040161021f90610c13565b60405180910390fd5b60006002600083815260200190815260200160002090508060030160009054906101000a900460ff1615610291576040517f08c379a000000000000000000000000000000000000000000000000000000000815260040161028890610c7f565b60405180910390fd5b8060020160008154809291906102a690610cce565b91905055507fd8d46ecf72f6103ff400e47d1b5fdfe248d4ca34a4acd39f63fbe903c8f7e7bd82336040516102dc929190610d16565b60405180910390a15050565b600260205280600052604060002060009150905080600001549080600101805461031190610d6e565b80601f016020809104026020016040519081016040528092919081815260200182805461033d90610d6e565b801561038a5780601f1061035f5761010080835404028352916020019161038a565b820191906000526020600020905b81548152906001019060200180831161036d57829003601f168201915b5050505050908060020154908060030160009054906101000a900460ff16905084565b60036020528060005260406000206000915054906101000a900460ff1681565b60008054906101000a900473ffffffffffffffffffffffffffffffffffffffff1673ffffffffffffffffffffffffffffffffffffffff163373ffffffffffffffffffffffffffffffffffffffff161461045b576040517f08c379a000000000000000000000000000000000000000000000000000000000815260040161045290610e11565b60405180910390fd5b60006002600083815260200190815260200160002090508060030160009054906101000a900460ff16156104c4576040517f08c379a00000000000000000000000000000000000000000000000000000000081526004016104bb90610c7f565b60405180910390fd5b600081600201541161050b576040517f08c379a000000000000000000000000000000000000000000000000000000000815260040161050290610ea3565b60405180910390fd5b60018160030160006101000a81548160ff0219169083151502179055507f712ae1383f79ac853f8d882153778e0260ef8f03b504e2866e0593e04d2b291f826040516105579190610bac565b60405180910390a15050565b600360003373ffffffffffffffffffffffffffffffffffffffff1673ffffffffffffffffffffffffffffffffffffffff16815260200190815260200160002060009054906101000a900460ff166105ef576040517f08c379a00000000000000000000000000000000000000000000000000000000081526004016105e690610c13565b60405180910390fd5b6001600081548092919061060290610cce565b9190505550604051806080016040528060015481526020018281526020016000815260200160001515815250600260006001548152602001908152602001600020600082015181600001556020820151816001019081610662919061106f565b506040820151816002015560608201518160030160006101000a81548160ff0219169083151502179055509050507f9c770c289ab5bf7e57cb1d23c8ceae993aea46eb64847072fd3d78ca60d3e432600154826040516106c3929190611141565b60405180910390a150565b60008054906101000a900473ffffffffffffffffffffffffffffffffffffffff1681565b60008054906101000a900473ffffffffffffffffffffffffffffffffffffffff1673ffffffffffffffffffffffffffffffffffffffff163373ffffffffffffffffffffffffffffffffffffffff1614610780576040517f08c379a000000000000000000000000000000000000000000000000000000000815260040161077790610e11565b60405180910390fd5b6001600360008373ffffffffffffffffffffffffffffffffffffffff1673ffffffffffffffffffffffffffffffffffffffff16815260200190815260200160002060006101000a81548160ff02191690831515021790555050565b60015481565b6000604051905090565b600080fd5b600080fd5b6000819050919050565b610808816107f5565b811461081357600080fd5b50565b600081359050610825816107ff565b92915050565b600060208284031215610841576108406107eb565b5b600061084f84828501610816565b91505092915050565b610861816107f5565b82525050565b600081519050919050565b600082825260208201905092915050565b60005b838110156108a1578082015181840152602081019050610886565b60008484015250505050565b6000601f19601f8301169050919050565b60006108c982610867565b6108d38185610872565b93506108e3818560208601610883565b6108ec816108ad565b840191505092915050565b60008115159050919050565b61090c816108f7565b82525050565b60006080820190506109276000830187610858565b818103602083015261093981866108be565b90506109486040830185610858565b6109556060830184610903565b95945050505050565b600073ffffffffffffffffffffffffffffffffffffffff82169050919050565b60006109898261095e565b9050919050565b6109998161097e565b81146109a457600080fd5b50565b6000813590506109b681610990565b92915050565b6000602082840312156109d2576109d16107eb565b5b60006109e0848285016109a7565b91505092915050565b60006020820190506109fe6000830184610903565b92915050565b600080fd5b600080fd5b7f4e487b7100000000000000000000000000000000000000000000000000000000600052604160045260246000fd5b610a46826108ad565b810181811067ffffffffffffffff82111715610a6557610a64610a0e565b5b80604052505050565b6000610a786107e1565b9050610a848282610a3d565b919050565b600067ffffffffffffffff821115610aa457610aa3610a0e565b5b610aad826108ad565b9050602081019050919050565b82818337600083830152505050565b6000610adc610ad784610a89565b610a6e565b905082815260208101848484011115610af857610af7610a09565b5b610b03848285610aba565b509392505050565b600082601f830112610b2057610b1f610a04565b5b8135610b30848260208601610ac9565b91505092915050565b600060208284031215610b4f57610b4e6107eb565b5b600082013567ffffffffffffffff811115610b6d57610b6c6107f0565b5b610b7984828501610b0b565b91505092915050565b610b8b8161097e565b82525050565b6000602082019050610ba66000830184610b82565b92915050565b6000602082019050610bc16000830184610858565b92915050565b7f4f6e6c792044414f206d656d626572732063616e20766f746500000000000000600082015250565b6000610bfd601983610872565b9150610c0882610bc7565b602082019050919050565b60006020820190508181036000830152610c2c81610bf0565b9050919050565b7f50726f706f73616c20616c726561647920657865637574656400000000000000600082015250565b6000610c69601983610872565b9150610c7482610c33565b602082019050919050565b60006020820190508181036000830152610c9881610c5c565b9050919050565b7f4e487b7100000000000000000000000000000000000000000000000000000000600052601160045260246000fd5b6000610cd9826107f5565b91507fffffffffffffffffffffffffffffffffffffffffffffffffffffffffffffffff8203610d0b57610d0a610c9f565b5b600182019050919050565b6000604082019050610d2b6000830185610858565b610d386020830184610b82565b9392505050565b7f4e487b7100000000000000000000000000000000000000000000000000000000600052602260045260246000fd5b60006002820490506001821680610d8657607f821691505b602082108103610d9957610d98610d3f565b5b50919050565b7f4f6e6c79206f776e65722063616e2063616c6c20746869732066756e6374696f60008201527f6e00000000000000000000000000000000000000000000000000000000000000602082015250565b6000610dfb602183610872565b9150610e0682610d9f565b604082019050919050565b60006020820190508181036000830152610e2a81610dee565b9050919050565b7f496e73756666696369656e7420766f74657320746f206578656375746520746860008201527f652070726f706f73616c00000000000000000000000000000000000000000000602082015250565b6000610e8d602a83610872565b9150610e9882610e31565b604082019050919050565b60006020820190508181036000830152610ebc81610e80565b9050919050565b60008190508160005260206000209050919050565b60006020601f8301049050919050565b600082821b905092915050565b600060088302610f257fffffffffffffffffffffffffffffffffffffffffffffffffffffffffffffffff82610ee8565b610f2f8683610ee8565b95508019841693508086168417925050509392505050565b6000819050919050565b6000610f6c610f67610f62846107f5565b610f47565b6107f5565b9050919050565b6000819050919050565b610f8683610f51565b610f9a610f9282610f73565b848454610ef5565b825550505050565b600090565b610faf610fa2565b610fba818484610f7d565b505050565b5b81811015610fde57610fd3600082610fa7565b600181019050610fc0565b5050565b601f82111561102357610ff481610ec3565b610ffd84610ed8565b8101602085101561100c578190505b61102061101885610ed8565b830182610fbf565b50505b505050565b600082821c905092915050565b600061104660001984600802611028565b1980831691505092915050565b600061105f8383611035565b9150826002028217905092915050565b61107882610867565b67ffffffffffffffff81111561109157611090610a0e565b5b61109b8254610d6e565b6110a6828285610fe2565b600060209050601f8311600181146110d957600084156110c7578287015190505b6110d18582611053565b865550611139565b601f1984166110e786610ec3565b60005b8281101561110f578489015182556001820191506020850194506020810190506110ea565b8683101561112c5784890151611128601f891682611035565b8355505b6001600288020188555050505b505050505050565b60006040820190506111566000830185610858565b818103602083015261116881846108be565b9050939250505056fea2646970667358221220351a204aebda06cbea117a8b22669e88168e3fdad55a4522c997c6893129d09464736f6c634300081c0033",
  "linkReferences": {},
  "deployedLinkReferences": {}
}